:100000000C9468000C9490000C9490000C94900058
:100010000C9490000C9490000C9490000C94900020
:100020000C9490000C9490000C9490000C942B066F
:100030000C9490000C9490000C9490000C94900000
:100040000C9489050C9490000C94F9050C94D3053C
:100050000C9490000C9490000C9490000C949000E0
:100060000C9490000C9490000000000023002600E7
:10007000290000000000240027002A0000000000E2
:10008000250028002B0004040404040404040202D4
:100090000202020203030303030301020408102007
:1000A0004080010204081020010204081020000012
:1000B0000008000201000003040700000000000027
:1000C00000000A0B0C0D0E0F0001020304050207CD
:1000D00011241FBECFEFD8E0DEBFCDBF11E0A0E0FE
:1000E000B1E0ECE7F9E102C005900D92A833B10749
:1000F000D9F722E0A8E3B1E001C01D92A336B20710
:10010000E1F710E0C8E6D0E004C02197FE010E94AC
:10011000B60CC736D107C9F70E9479070C94BC0CFE
:100120000C940000833081F028F4813099F0823003
:10013000A9F008958730A9F08830C9F08430B1F46F
:10014000809180008F7D03C0809180008F778093A5
:100150008000089584B58F7784BD089584B58F7D20
:10016000FBCF8091B0008F778093B000089580918D
:10017000B0008F7DF9CF1F93CF93DF93282F30E00E
:10018000F901E255FF4F8491F901E656FF4FD491F2
:10019000F901EA57FF4FC491CC23A9F0162F811122
:1001A0000E949200EC2FF0E0EE0FFF1FE458FF4F8B
:1001B000A591B4918FB7F894EC91111108C0D09526
:1001C000DE23DC938FBFDF91CF911F910895DE2B4B
:1001D000F8CF682F809148020E94BB0080915F0297
:1001E000909160028230910538F0880F991F880F36
:1001F000991F05970197F1F7089581E00C94E900A4
:10020000682F809147029091480289130C94BB009B
:100210000895CF93DF9390E0FC01E656FF4F2491C1
:100220008A579F4FFC0184918823C9F090E0880F82
:10023000991FFC01EE58FF4FA591B491FC01E458C1
:10024000FF4FC591D49161110DC09FB7F8948C9167
:10025000209582238C938881282328839FBFDF9158
:10026000CF910895623051F49FB7F8943C91822F5A
:10027000809583238C93E8812E2BEFCF8FB7F89452
:10028000EC912E2B2C938FBFEACF3FB7F89480913F
:10029000850190918601A0918701B091880126B5D2
:1002A000A89B05C02F3F19F00196A11DB11D3FBFAE
:1002B000BA2FA92F982F8827BC01CD01620F711D7D
:1002C000811D911D42E0660F771F881F991F4A9577
:1002D000D1F708958F929F92AF92BF92CF92DF9203
:1002E000EF92FF924B015C010E9445016B017C0182
:1002F0000E9445016C197D098E099F09683E734073
:1003000081059105A8F321E0821A9108A108B1089E
:1003100088EEC80E83E0D81EE11CF11C8114910404
:10032000A104B10429F7FF90EF90DF90CF90BF9028
:10033000AF909F908F900895AF92BF92CF92DF922F
:10034000EF92FF920F931F93CF93DF936C017B018A
:100350008B01040F151FEB015E01AE18BF08C0171B
:10036000D10759F06991D601ED91FC910190F0818E
:10037000E02DC6010995892B79F7C501DF91CF9151
:100380001F910F91FF90EF90DF90CF90BF90AF90B3
:100390000895FC01538D448D252F30E0842F90E08B
:1003A000821B930B541710F0CF9608950197089570
:1003B000FC01918D828D981761F0A28DAE0FBF2F39
:1003C000B11D5D968C91928D9F5F9F73928F90E08F
:1003D00008958FEF9FEF0895FC01918D828D9817FE
:1003E00031F0828DE80FF11D858D90E008958FEF3B
:1003F0009FEF0895FC01918D228D892F90E0805C04
:100400009F4F821B91098F739927089589E891E086
:100410000E94FA0121E0892B09F420E0822F08953F
:1004200080E090E0892B29F00E94060281110C9453
:1004300000000895FC01A48DA80FB92FB11DA35A87
:10044000BF4F2C91848D90E001968F739927848FF4
:10045000A689B7892C93A089B1898C918370806417
:100460008C93938D848D981306C00288F389E02DB8
:1004700080818F7D80830895EF92FF920F931F9369
:10048000CF93DF93EC0181E0888F9B8D8C8D981347
:100490001AC0E889F989808185FF15C09FB7F89453
:1004A000EE89FF896083E889F9898081837080649F
:1004B00080839FBF81E090E0DF91CF911F910F91EA
:1004C000FF90EF900895F62E0B8D10E00F5F1F4FF9
:1004D0000F731127E02E8C8D8E110CC00FB607FC08
:1004E000FACFE889F989808185FFF5CFCE010E9496
:1004F0001A02F1CFEB8DEC0FFD2FF11DE35AFF4FE8
:10050000F0829FB7F8940B8FEA89FB898081806223
:10051000CFCFCF93DF93EC01888D8823B9F0AA89E0
:10052000BB89E889F9898C9185FD03C0808186FDAE
:100530000DC00FB607FCF7CF8C9185FFF2CF8081FD
:1005400085FFEDCFCE010E941A02E9CFDF91CF9156
:100550000895CF92DF92EF92FF92CF93DF93EC0159
:10056000603282E07807CCF5653B710514F064EBEE
:1005700070E0898128E830E0281B310987FD339538
:10058000220F331F220F331F6901330FEE08FF08BC
:100590008A8128E532E0281B310987FD3395220F37
:1005A000331F220F331F032E000C440B550B2C1945
:1005B0003D094E095F09DB0177FF02C0B0E0A0E012
:1005C0000E94710C24EB30E040E050E00E94470CA8
:1005D000C20ED31EE41EF51EB601E881EC3070F5A4
:1005E000298188E890E0821B910927FD9395880F67
:1005F000991F880F991F681779077CF02A8188E571
:1006000092E0821B910927FD9395880F991F880F0F
:10061000991F681779070CF4CB010297880F991F6F
:100620004FB7F8942E2F30E0F901EE0FFF1FE20FC5
:10063000F31FE65CFE4F928381834FBFDF91CF9122
:10064000FF90EF90DF90CF900895DF92EF92FF92AE
:100650000F931F93CF93DF93EC01D62E7A0189017C
:1006600088818C3008F067C061E08D2D0E940901FF
:100670008881282F30E0F901EE0FFF1FE20FF31FF2
:10068000E65CFE4F9D2D9F736081607C692B6083CB
:1006900020E232E02E193F0937FF02C02D5F3F4FA5
:1006A0003595279535952795298320E639E0201B38
:1006B000310B37FF02C02D5F3F4F3595279535959C
:1006C00027952A832CE0622F0E94AA0C829FB001FA
:1006D000112430E020E0AB01420F531FFA01EE0F6E
:1006E000FF1FE40FF51FE65CFE4F908196FD16C0DC
:1006F0002F5F3F4F2C30310571F781110FC01092E1
:10070000800082E080938100109285001092840026
:10071000B19A80916F00826080936F00E8818E2F84
:1007200090E0FC01EE0FFF1FE80FF91FE65CFE4FA3
:100730008081806480838881DF91CF911F910F91A8
:10074000FF90EF90DF9008958EBD00000DB407FE7E
:10075000FDCF8EB508950F931F930091490210911C
:100760004A0220914B0230914C0240E052E16AE78C
:1007700070E080E0041715072607370740F47695E8
:100780006795579547958F5F8630A1F787E0982F3B
:10079000906A9695809581709CBD8DBD80E01F917B
:1007A0000F910C94E900CF93C82F0E94AB038C2FBC
:1007B00080620E94A40380934D02CF910C94FD00AF
:1007C000EF92FF920F931F93CF93DF937C01D62F6D
:1007D00080915902C0E0811106C0C0914E02C61737
:1007E00008F4DC2FCD1B0E94AB0381E60E94A4031A
:1007F00080934D028701D15038F08FEF0E94A403FF
:10080000F80181938F01F7CFC15020F08FEF0E9444
:10081000A403FACFDF91CF911F910F91FF90EF903A
:100820000C94FD00CF93C82F0E94AB038C2F0E9425
:10083000A40380934D028FEF0E94A403C82F0E944F
:10084000FD008C2FCF910895CF93DF93EC0187E1CA
:100850000E94120480FD0FC088818F3F51F08FEFFE
:100860000E94D30380914D0290E095958795877003
:10087000888381E001C080E0DF91CF910895FF92ED
:100880000F931F93CF93DF93C82FF62E072F142FAC
:100890000E94AB038C2F80620E94A40380934D02C0
:1008A000CF2DD02F115020F089910E94A403FACFB0
:1008B000DF91CF911F910F91FF900C94FD000E944A
:1008C000AB0380E50E94A40380934D0283E70E945E
:1008D000A4030C94FD00CF93DF93D82FC62F0E9462
:1008E000AB038D2F80620E94A40380934D028C2F56
:1008F0000E94A403DF91CF910C94FD0060915402FB
:1009000061FD0AC062606093540280E00E946B0443
:100910008BE19EE40197F1F708950E947E046091B7
:10092000540261606093540280E00E946B0460E7AF
:1009300087E00E946B0481E00E94000180915602D2
:10094000882339F0409158026FE472E08AE00C94F9
:100950003F0482E00E941204E8ECF0E0E49121E020
:1009600030E001C0220FEA95EAF72095622F682354
:1009700082E00E946B04109256020895CF93DF9399
:10098000EC0186E00E941204877D2297E1F045E5A4
:1009900050E060E070E040935B0250935C02609333
:1009A0005D0270935E02C0E0C82B6C2F86E00E944F
:1009B0006B0486E00E94120491E0C81390E0892F36
:1009C000DF91CF9108954BE950E060E070E04093F3
:1009D0005B0250935C0260935D0270935E02C0E222
:1009E000E3CFCF93DF93CDB7DEB728970FB6F89458
:1009F000DEBF0FBECDBF29833A834B835C836D83FB
:100A00007E838F839887E3ECF0E0849140915802D5
:100A1000BE016F5F7F4F0E943F0482E00E9412047C
:100A2000E9ECF0E0E49161E070E001C0660FEA9566
:100A3000EAF7682B82E00E946B0428960FB6F894C0
:100A4000DEBF0FBECDBFDF91CF910895FC010190B5
:100A50000020E9F73197AF01481B590BBC0189E829
:100A600091E00C949C018F929F92AF92BF920F9352
:100A70001F93CF93DF93CDB7DEB7A1970FB6F8944E
:100A8000DEBF0FBECDBF19A2423008F44AE08E018E
:100A90000F5D1F4F842E912CB12CA12CA501940128
:100AA0000E94790CE62FB901CA01EA30F4F4E05D46
:100AB000D801EE938D01232B242B252B79F790E081
:100AC00080E0109719F0CD010E942605A1960FB67F
:100AD000F894DEBF0FBECDBFDF91CF911F910F9174
:100AE000BF90AF909F908F900895E95CE1CFCF9336
:100AF000DF93BC0190E080E04AE00E943305EC0106
:100B000082E191E00E9426058C0F9D1FDF91CF911D
:100B100008951F920F920FB60F9211242F933F93B7
:100B20008F939F93AF93BF938091810190918201A6
:100B3000A0918301B09184013091800123E0230FC3
:100B40002D3758F50196A11DB11D2093800180938A
:100B5000810190938201A0938301B09384018091DD
:100B6000850190918601A0918701B091880101963D
:100B7000A11DB11D8093850190938601A0938701EB
:100B8000B0938801BF91AF919F918F913F912F9129
:100B90000F900FBE0F901F90189526E8230F029616
:100BA000A11DB11DD2CF1F920F920FB60F9211242B
:100BB0002F933F934F935F936F937F938F939F9365
:100BC000AF93BF93EF93FF9389E891E00E941A02DD
:100BD000FF91EF91BF91AF919F918F917F916F9115
:100BE0005F914F913F912F910F900FBE0F901F90EB
:100BF00018951F920F920FB60F9211242F938F9377
:100C00009F93EF93FF93E0919901F0919A01808176
:100C1000E0919F01F091A00182FD1BC09081809125
:100C2000A2018F5F8F732091A301821741F0E091A1
:100C3000A201F0E0E757FE4F958F8093A201FF914C
:100C4000EF919F918F912F910F900FBE0F901F905A
:100C500018958081F4CF1F920F920FB60F92112436
:100C60002F933F934F935F936F937F938F939F93B4
:100C7000AF93BF93CF93DF93EF93FF9380913801AE
:100C8000C0913901D0E087FF24C0109285001092F6
:100C90008400809138018F5F809338018091380102
:100CA000082E000C990B8C179D0724F480913801B5
:100CB0008C30C4F18091840090918500049680343A
:100CC0009C4908F47AC08091840090918500049634
:100CD00076C080913801082E000C990B8C179D0767
:100CE000C4F6E09138018E2FEE0F990BFC01EE0F48
:100CF000FF1FE80FF91FE65CFE4F808186FFC9CF1A
:100D0000E09138018E2FEE0F990BFC01EE0FFF1FC3
:100D1000E80FF91FE65CFE4F808160E08F730E9450
:100D2000BB00B7CF2091840030918500E09138015D
:100D30008E2FEE0F990BFC01EE0FFF1FE80FF91F2E
:100D4000E65CFE4F81819281820F931F9093890010
:100D500080938800E09138018E2FEE0F990BFC01F3
:100D6000EE0FFF1FE80FF91FE65CFE4F808186FF44
:100D700011C0E09138018E2FEE0F990BFC01EE0FA0
:100D8000FF1FE80FF91FE65CFE4F808161E08F7363
:100D90000E94BB00FF91EF91DF91CF91BF91AF9186
:100DA0009F918F917F916F915F914F913F912F9183
:100DB0000F900FBE0F901F90189580E49CE99093C0
:100DC0008900809388008FEF80933801E3CFFC0186
:100DD000909139019C3098F481E0890F809339011A
:100DE0009083892F90E0FC01EE0FFF1FE80FF91FA1
:100DF000E65CFE4F88EB9BE09283818308958FEF42
:100E000080830895E9E8F1E01382128288EE93E08E
:100E1000A0E0B0E084839583A683B78384E091E06B
:100E20009183808385EC90E09587848784EC90E0C3
:100E30009787868780EC90E0918B808B81EC90E0A7
:100E4000938B828B82EC90E0958B848B86EC90E088
:100E5000978B868B118E128E138E148EE5E4F2E042
:100E600089E082838AE0838380E896E9A8E9B0E09C
:100E700084839583A683B78380E28187108A118A51
:100E800085E0838B81E0848B85E090E0A0E0B0E09A
:100E9000828F938FA48FB58F86E292E091838083B7
:100EA000128682E492E00E94E7068FE392E00E94BD
:100EB000E7068CE392E00E94E70689E392E00E9455
:100EC000E70686E392E00E94E70683E392E00E9451
:100ED000E70680E392E00E94E7068DE292E00E943E
:100EE000E7068AE292E00E94E70687E292E00C942D
:100EF000E706CF93DF93CDB7DEB729970FB6F89407
:100F0000DEBF0FBECDBF789484B5826084BD84B54A
:100F1000816084BD85B5826085BD85B5816085BDF4
:100F200080916E00816080936E00109281008091AC
:100F30008100826080938100809181008160809334
:100F40008100809180008160809380008091B10059
:100F500084608093B1008091B00081608093B00084
:100F600080917A00846080937A0080917A00826018
:100F700080937A0080917A00816080937A008091DA
:100F80007A00806880937A001092C100E091990104
:100F9000F0919A0182E08083E0919501F0919601B1
:100FA0001082E0919701F091980180E18083109286
:100FB000A101E0919D01F0919E0186E08083E09186
:100FC0009B01F0919C01808180618083E0919B0175
:100FD000F0919C01808188608083E0919B01F09179
:100FE0009C01808180688083E0919B01F0919C014D
:100FF00080818F7D808360E084E10E94090162E04E
:1010000083E00E94090161E082E00E94090124EC72
:1010100039E044EF51E06EE070E082E492E00E943B
:10102000250324EC39E044EF51E06FE070E08FE3FA
:1010300092E00E94250320ED37E048EE53E060E1A6
:1010400070E08CE392E00E94250324EC39E044EF49
:1010500051E061E170E089E392E00E94250324EC15
:1010600039E044EF51E062E170E086E392E00E94F3
:10107000250324EC39E044EF51E063E170E083E3C1
:1010800092E00E94250324EC39E044EF51E064E053
:1010900070E080E392E00E94250324EC39E044EF05
:1010A00051E065E070E08DE292E00E9425032EE6BB
:1010B000E22E21E0F22E10E000E0C8010E94310C87
:1010C000D7018D937D010F5F1F4F08301105A9F7E0
:1010D00061E070E080E090E00E946A0184E291E0CB
:1010E0000E9426056091720170E090E080E04AE085
:1010F0000E94330585E191E00E9426056091700110
:101100007091710190E080E04AE00E9433058CE12B
:1011100091E00E94260580916E0190916F010E94DE
:10112000770500E910E0B4EAEB2EB0E0FB2E80E298
:10113000C82E95E0B92EDFB6F89480915E0181113A
:1011400025C0F8018491F7019491E82FF0E0EE0FAB
:10115000FF1FEE58FF4FA591B4918C91982321F475
:1011600061E08AE00E94BB0061E08AE00E94090120
:101170008CB580618CBD8CB580648CBD61E08DE0E8
:101180000E94090161E08BE00E94090180915E01EB
:101190008F5F80935E01DFBE809147028F3F09F42D
:1011A000EFC0909148029F3F09F4EAC0891741F0CF
:1011B00061E00E94090161E0809148020E940901FA
:1011C00080E00E94000181E00E94E90065E070E09B
:1011D00080E090E00E946A016FE584E00E946B0469
:1011E00090E080E00E94BE048DE10E941204D82E9F
:1011F0000E945F048DE10E94120491E0D81290E0F9
:1012000090935502882341F0D81202C00E945F04D7
:1012100060E08DE10E946B041092570260E08CE167
:101220000E946B04109259026FE381E00E946B04EC
:1012300063E082E00E946B04C0924E02E1E1DE2E88
:1012400060914E028D2D0E946B04D394F7E1DF1262
:10125000F7CF63E083E00E946B04B09258026CE425
:1012600085E00E946B0460E787E00E946B0482EED9
:101270000E94D30381EE0E94D3036CE080E00E94C1
:101280006B0480E00E941204809354020E947E044A
:10129000809154028E3009F073C060E082E00E94B9
:1012A000BB00E1EBF0E08491EDE9F0E00491E9E8C6
:1012B000F0E01491111169C060E081E00E946B04BC
:1012C00080915702882351F08DE10E941204682F0B
:1012D0006D7F8DE10E946B041092570287E689832F
:1012E0008BE28A831B821C821D821E821F821886CB
:1012F00040915802BE016F5F7F4F8AE00E943F0419
:1013000040915802BE016F5F7F4F80E10E943F0411
:1013100024EA32E840E050E060E070E080E090E0F5
:101320000E94F1046FE685E00E946B0486E00E9453
:101330001204887F682F616086E00E946B0482E05F
:1013400090E00E94BE040E948D0481E080936D01B4
:1013500008EC10E0EE24E394F12C80916D018130D3
:1013600009F0C1C190916C01911142C0E4E6F1E035
:1013700098E0DF011D929A95E9F780936C01EDCF1B
:1013800061E082E00E94BB00D6CE81110E949200F3
:10139000E12FF0E0EE0FFF1FE859FF4FA591B49148
:1013A000EC91E02309F488CF80906E0190906F015A
:1013B000940140E050E060E070E080E090E00E9446
:1013C000F104609172016D3708F06DE785E00E94CD
:1013D0006B0486E00E941204682F676086E00E941A
:1013E0006B0482E090E00E94BE040E948D04B0CFA6
:1013F000913009F0D5C08FB7F89440918101509198
:10140000820160918301709184018FBF809060019F
:1014100090906101A0906201B09063014819590950
:101420006A097B09483C510561057105C0F080914E
:101430005F01892780935F012FB7F8948091810124
:1014400090918201A0918301B09184012FBF80937C
:10145000600190936101A0936201B0936301809158
:101460005F0161E0811160E082E00E94BB008FEFCC
:101470008987CE0109960E942404882309F46DCF40
:1014800068E084E691E00E94E00360E487E00E9467
:101490006B0483E291E00E9426056091680170E090
:1014A00090E080E04AE00E94330588E291E00E94EB
:1014B0002605609166017091670190E080E04AE046
:1014C0000E94330580E391E00E942605809164012B
:1014D000909165010E947705409168018FEF840F1C
:1014E000883708F03ACF20916601309167012115C5
:1014F000310509F432CF8091640190916501009724
:1015000009F42BCF40937201309371012093700145
:1015100090936F0180936E015EE6A52E51E0B52E8B
:10152000D12CC12CF50191905F01C6010E94310CB4
:10153000981621F0692DC6010E94390CFFEFCF1AD1
:10154000DF0A88E0C816D10469F761E070E080E046
:1015500090E00E946A0183E291E00E94260560917A
:10156000720170E090E080E04AE00E94330588E27A
:1015700091E00E942605609170017091710190E0E8
:1015800080E04AE00E94330580E391E00E94260556
:1015900080916E0190916F010E94770582E0EDCEFF
:1015A00061E082E00E94BB0080E00E940001809127
:1015B0005B0290915C028230910538F0880F991F90
:1015C000880F991F05970197F1F78091570288239B
:1015D00019F081EE0E94D303609154026E7F6093F4
:1015E000540280E00E946B0482E00E941204F80121
:1015F0009491B70101C0660F9A95EAF7682B82E0D3
:101600000E946B0480915902D12C28E0C22E8111D6
:1016100009C080914E02C82E893010F038E0C32EE8
:10162000D82EDC180E94AB0380EA0E94A4038093AA
:101630004D029EE6A92E91E0B92ECA94FFEFCF1677
:1016400031F0D5018D915D010E94A403F6CFDA94AB
:10165000BFEFDB1621F080E00E94A403F8CF0E94C8
:10166000FD0081E00E9400018FB7F8948090810115
:1016700090908201A0908301B09084018FBF8FEF82
:101680000E94D30380914D028073F1F42FB7F89438
:101690008091810190918201A0918301B091840198
:1016A0002FBF88199909AA09BB0980369105A105A0
:1016B000B10528F381E080935A0265E070E080E094
:1016C00090E00E946A0149CE80E00E94000160E73C
:1016D00087E00E946B0480914D0284FFEECF81EE83
:1016E0000E94D303EACF03E010E061E082E00E94B1
:1016F000BB0068EC70E080E090E00E946A0160E06E
:1017000082E00E94BB0068EC70E080E090E00E9404
:101710006A010150110949F7BB24BA94C12CD12C9C
:101720007601CA9400E010E0B986CE0109960E94C5
:101730002404882349F06AE086E791E00E94E003F0
:1017400060E487E00E946B042091760130E0A4EB16
:10175000B0E00E949B0CA70196010E94470CB901C2
:1017600082E492E00E94A9022091770130E0A4EB8C
:10177000B0E00E949B0CA70196010E94470CB901A2
:101780008FE392E00E94A9022091780130E0A4EB5F
:10179000B0E00E949B0CA70196010E94470CB90182
:1017A0008CE392E00E94A9022091790130E0A4EB41
:1017B000B0E00E949B0CA70196010E94470CB90162
:1017C00089E392E00E94A90220917A0130E0A4EB23
:1017D000B0E00E949B0CA70196010E94470CB90142
:1017E00086E392E00E94A90220917B0130E0A4EB05
:1017F000B0E00E949B0CA70196010E94470CB90122
:1018000083E392E00E94A90220917C0130E0A4EBE6
:10181000B0E00E949B0CA70196010E94470CB90101
:1018200080E392E00E94A90280917D0164EB70E068
:10183000823338F0845B6AE570E0833310F070E047
:1018400060E08DE292E00E94A9020115110509F401
:101850006BCF0E940602882309F466CF0E94000025
:1018600063CFF999FECF92BD81BDF89A992780B5D3
:101870000895262FF999FECF1FBA92BD81BD20BDD4
:101880000FB6F894FA9AF99A0FBE01960895052EAC
:1018900097FB1EF400940E945E0C57FD07D00E9437
:1018A000790C07FC03D04EF40C945E0C50954095D7
:1018B000309521953F4F4F4F5F4F089590958095FC
:1018C000709561957F4F8F4F9F4F08950E949B0C9D
:1018D000A59F900DB49F900DA49F800D911D112484
:1018E0000895B7FF0C94660C0E94660C821B930B44
:1018F0000895A1E21A2EAA1BBB1BFD010DC0AA1F51
:10190000BB1FEE1FFF1FA217B307E407F50720F068
:10191000A21BB30BE40BF50B661F771F881F991FE3
:101920001A9469F760957095809590959B01AC012C
:10193000BD01CF010895A29FB001B39FC001A39F35
:10194000700D811D1124911DB29F700D811D1124F8
:10195000911D0895991B79E004C0991F961708F00E
:10196000961B881F7A95C9F780950895EE0FFF1F83
:0C1970000590F491E02D0994F894FFCF4D
:10197C00000000003C029C01C9018902FA01D80157
:10198C00EC010D0A00202D20523A2000202D20576A
:10199C003A20004E433A2000202D204E523A20008F
:0819AC00202D204E573A2000C7
:00000001FF
